{
  "contractName": "Funding",
  "abi": [
    {
      "constant": true,
      "inputs": [
        {
          "internalType": "uint256",
          "name": "",
          "type": "uint256"
        }
      ],
      "name": "campaigns",
      "outputs": [
        {
          "internalType": "string",
          "name": "projectName",
          "type": "string"
        },
        {
          "internalType": "string",
          "name": "projectDescription",
          "type": "string"
        },
        {
          "internalType": "address payable",
          "name": "manager",
          "type": "address"
        },
        {
          "internalType": "uint256",
          "name": "targetMoney",
          "type": "uint256"
        },
        {
          "internalType": "uint256",
          "name": "endTime",
          "type": "uint256"
        },
        {
          "internalType": "uint256",
          "name": "collectedMoney",
          "type": "uint256"
        },
        {
          "internalType": "uint256",
          "name": "numFunders",
          "type": "uint256"
        },
        {
          "internalType": "bool",
          "name": "isUsed",
          "type": "bool"
        },
        {
          "internalType": "bool",
          "name": "isSuccessful",
          "type": "bool"
        }
      ],
      "payable": false,
      "stateMutability": "view",
      "type": "function"
    },
    {
      "constant": true,
      "inputs": [],
      "name": "numCampaigns",
      "outputs": [
        {
          "internalType": "uint256",
          "name": "",
          "type": "uint256"
        }
      ],
      "payable": false,
      "stateMutability": "view",
      "type": "function"
    },
    {
      "constant": true,
      "inputs": [
        {
          "internalType": "uint256",
          "name": "",
          "type": "uint256"
        }
      ],
      "name": "uses",
      "outputs": [
        {
          "internalType": "string",
          "name": "useDescription",
          "type": "string"
        },
        {
          "internalType": "uint256",
          "name": "amount",
          "type": "uint256"
        },
        {
          "internalType": "uint256",
          "name": "agreeAmount",
          "type": "uint256"
        },
        {
          "internalType": "uint256",
          "name": "numVote",
          "type": "uint256"
        },
        {
          "internalType": "bool",
          "name": "isSuccessful",
          "type": "bool"
        }
      ],
      "payable": false,
      "stateMutability": "view",
      "type": "function"
    },
    {
      "constant": false,
      "inputs": [
        {
          "internalType": "string",
          "name": "name",
          "type": "string"
        },
        {
          "internalType": "string",
          "name": "desc",
          "type": "string"
        },
        {
          "internalType": "address payable",
          "name": "manager",
          "type": "address"
        },
        {
          "internalType": "uint256",
          "name": "target",
          "type": "uint256"
        },
        {
          "internalType": "uint256",
          "name": "endTime",
          "type": "uint256"
        }
      ],
      "name": "newCampaign",
      "outputs": [
        {
          "internalType": "uint256",
          "name": "",
          "type": "uint256"
        }
      ],
      "payable": false,
      "stateMutability": "nonpayable",
      "type": "function"
    },
    {
      "constant": false,
      "inputs": [
        {
          "internalType": "uint256",
          "name": "campaignID",
          "type": "uint256"
        }
      ],
      "name": "contribute",
      "outputs": [],
      "payable": true,
      "stateMutability": "payable",
      "type": "function"
    },
    {
      "constant": false,
      "inputs": [
        {
          "internalType": "uint256",
          "name": "campaignID",
          "type": "uint256"
        },
        {
          "internalType": "uint256",
          "name": "amount",
          "type": "uint256"
        },
        {
          "internalType": "string",
          "name": "desc",
          "type": "string"
        }
      ],
      "name": "setUse",
      "outputs": [],
      "payable": false,
      "stateMutability": "nonpayable",
      "type": "function"
    },
    {
      "constant": false,
      "inputs": [
        {
          "internalType": "uint256",
          "name": "campaignID",
          "type": "uint256"
        },
        {
          "internalType": "bool",
          "name": "agree",
          "type": "bool"
        }
      ],
      "name": "agreeUse",
      "outputs": [],
      "payable": false,
      "stateMutability": "nonpayable",
      "type": "function"
    },
    {
      "constant": true,
      "inputs": [
        {
          "internalType": "uint256",
          "name": "campaignID",
          "type": "uint256"
        }
      ],
      "name": "checkGoalReached",
      "outputs": [
        {
          "internalType": "bool",
          "name": "",
          "type": "bool"
        }
      ],
      "payable": false,
      "stateMutability": "view",
      "type": "function"
    },
    {
      "constant": true,
      "inputs": [
        {
          "internalType": "uint256",
          "name": "campaignID",
          "type": "uint256"
        }
      ],
      "name": "checkCampaignUsed",
      "outputs": [
        {
          "internalType": "bool",
          "name": "",
          "type": "bool"
        }
      ],
      "payable": false,
      "stateMutability": "view",
      "type": "function"
    },
    {
      "constant": true,
      "inputs": [
        {
          "internalType": "uint256",
          "name": "campaignID",
          "type": "uint256"
        }
      ],
      "name": "getAmount",
      "outputs": [
        {
          "internalType": "uint256",
          "name": "",
          "type": "uint256"
        }
      ],
      "payable": false,
      "stateMutability": "view",
      "type": "function"
    }
  ],
  "bytecode": "0x608060405234801561001057600080fd5b50611766806100206000396000f3fe6080604052600436106100915760003560e01c8063863ee50311610059578063863ee503146101ad5780639980ec86146101ea578063b7b1d13014610227578063c1cbbca714610250578063f5234eaf1461026c57610091565b8063141961bc146100965780632c0f7b6f146100db578063489b05f5146101065780635b2329d41461012f5780637cdcbd5d1461016c575b600080fd5b3480156100a257600080fd5b506100bd60048036036100b89190810190611371565b6102a9565b6040516100d2999897969594939291906114be565b60405180910390f35b3480156100e757600080fd5b506100f0610461565b6040516100fd91906115b3565b60405180910390f35b34801561011257600080fd5b5061012d6004803603610128919081019061139a565b610467565b005b34801561013b57600080fd5b5061015660048036036101519190810190611371565b610779565b60405161016391906114a3565b60405180910390f35b34801561017857600080fd5b50610193600480360361018e9190810190611371565b6107ab565b6040516101a4959493929190611559565b60405180910390f35b3480156101b957600080fd5b506101d460048036036101cf91908101906112ca565b610886565b6040516101e191906115b3565b60405180910390f35b3480156101f657600080fd5b50610211600480360361020c9190810190611371565b610ae6565b60405161021e91906115b3565b60405180910390f35b34801561023357600080fd5b5061024e600480360361024991908101906113d6565b610d16565b005b61026a60048036036102659190810190611371565b610e69565b005b34801561027857600080fd5b50610293600480360361028e9190810190611371565b61107a565b6040516102a091906114a3565b60405180910390f35b6001602052806000526040600020600091509050806000018054600181600116156101000203166002900480601f0160208091040260200160405190810160405280929190818152602001828054600181600116156101000203166002900480156103555780601f1061032a57610100808354040283529160200191610355565b820191906000526020600020905b81548152906001019060200180831161033857829003601f168201915b505050505090806001018054600181600116156101000203166002900480601f0160208091040260200160405190810160405280929190818152602001828054600181600116156101000203166002900480156103f35780601f106103c8576101008083540402835291602001916103f3565b820191906000526020600020905b8154815290600101906020018083116103d657829003601f168201915b5050505050908060020160009054906101000a900473ffffffffffffffffffffffffffffffffffffffff16908060030154908060040154908060050154908060060154908060070160009054906101000a900460ff16908060070160019054906101000a900460ff16905089565b60005481565b60006001600084815260200190815260200160002090506000600260008581526020019081526020016000209050600054841080156104a7575060008410155b6104b057600080fd5b600115158260070160019054906101000a900460ff1615151480156104ea5750600015158260070160009054906101000a900460ff161515145b801561050b5750600015158160040160009054906101000a900460ff161515145b61051457600080fd5b60008090505b826006015481116107725782600801600082815260200190815260200160002060000160009054906101000a900473ffffffffffffffffffffffffffffffffffffffff1673ffffffffffffffffffffffffffffffffffffffff163373ffffffffffffffffffffffffffffffffffffffff16141561076557600082600501600083815260200190815260200160002054146105b357600080fd5b60008260050160008381526020019081526020016000205414156107645760011515841515141561062857600182600501600083815260200190815260200160002081905550826008016000828152602001908152602001600020600101548260020160008282540192505081905550610644565b6002826005016000838152602001908152602001600020819055505b8260060154826003016000815460010191905081905514156107635760018360070160006101000a81548160ff021916908315150217905550600283600501548161068b57fe5b048260020154106107445760018260040160006101000a81548160ff0219169083151502179055508260020160009054906101000a900473ffffffffffffffffffffffffffffffffffffffff1673ffffffffffffffffffffffffffffffffffffffff166108fc83600101549081150290604051600060405180830381858888f19350505050158015610721573d6000803e3d6000fd5b5060018360070160006101000a81548160ff021916908315150217905550610762565b60008260040160006101000a81548160ff0219169083151502179055505b5b5b5b808060010191505061051a565b5050505050565b6000806001600084815260200190815260200160002090508060070160019054906101000a900460ff16915050919050565b6002602052806000526040600020600091509050806000018054600181600116156101000203166002900480601f0160208091040260200160405190810160405280929190818152602001828054600181600116156101000203166002900480156108575780601f1061082c57610100808354040283529160200191610857565b820191906000526020600020905b81548152906001019060200180831161083a57829003601f168201915b5050505050908060010154908060020154908060030154908060040160009054906101000a900460ff16905085565b600042821161089457600080fd5b60008060008154809291906001019190505590506040518061012001604052808881526020018781526020018673ffffffffffffffffffffffffffffffffffffffff1681526020018581526020018481526020016000815260200160008152602001600015158152602001600015158152506001600083815260200190815260200160002060008201518160000190805190602001906109359291906110ac565b5060208201518160010190805190602001906109529291906110ac565b5060408201518160020160006101000a81548173ffffffffffffffffffffffffffffffffffffffff021916908373ffffffffffffffffffffffffffffffffffffffff160217905550606082015181600301556080820151816004015560a0820151816005015560c0820151816006015560e08201518160070160006101000a81548160ff0219169083151502179055506101008201518160070160016101000a81548160ff0219169083151502179055509050506040518060a001604052806040518060400160405280601b81526020017f506c656173652073657420557365204465736372697074696f6e2e0000000000815250815260200160008152602001600081526020016000815260200160001515815250600260008381526020019081526020016000206000820151816000019080519060200190610a979291906110ac565b5060208201518160010155604082015181600201556060820151816003015560808201518160040160006101000a81548160ff0219169083151502179055509050508091505095945050505050565b6000610af061112c565b6001600084815260200190815260200160002060405180610120016040529081600082018054600181600116156101000203166002900480601f016020809104026020016040519081016040528092919081815260200182805460018160011615610100020316600290048015610ba85780601f10610b7d57610100808354040283529160200191610ba8565b820191906000526020600020905b815481529060010190602001808311610b8b57829003601f168201915b50505050508152602001600182018054600181600116156101000203166002900480601f016020809104026020016040519081016040528092919081815260200182805460018160011615610100020316600290048015610c4a5780601f10610c1f57610100808354040283529160200191610c4a565b820191906000526020600020905b815481529060010190602001808311610c2d57829003601f168201915b505050505081526020016002820160009054906101000a900473ffffffffffffffffffffffffffffffffffffffff1673ffffffffffffffffffffffffffffffffffffffff1673ffffffffffffffffffffffffffffffffffffffff168152602001600382015481526020016004820154815260200160058201548152602001600682015481526020016007820160009054906101000a900460ff161515151581526020016007820160019054906101000a900460ff16151515158152505090508060a00151915050919050565b60005483108015610d28575060008310155b610d3157600080fd5b600115156001600085815260200190815260200160002060070160019054906101000a900460ff16151514610d6557600080fd5b600015156001600085815260200190815260200160002060070160009054906101000a900460ff16151514610d9957600080fd5b3373ffffffffffffffffffffffffffffffffffffffff166001600085815260200190815260200160002060020160009054906101000a900473ffffffffffffffffffffffffffffffffffffffff1673ffffffffffffffffffffffffffffffffffffffff1614610e0757600080fd5b8160016000858152602001908152602001600020600301541015610e2a57600080fd5b600060026000858152602001908152602001600020905081816000019080519060200190610e59929190611192565b5082816001018190555050505050565b60005481108015610e7b575060008110155b610e8457600080fd5b600034118015610ec2575060016000828152602001908152602001600020600501546001600083815260200190815260200160002060030154033411155b610ecb57600080fd5b42600160008381526020019081526020016000206004015411610eed57600080fd5b600015156001600083815260200190815260200160002060070160019054906101000a900460ff16151514610f2157600080fd5b600060016000838152602001908152602001600020905060006002600084815260200190815260200160002090506000816005016000846006015481526020019081526020016000208190555060405180604001604052803373ffffffffffffffffffffffffffffffffffffffff1681526020013481525082600801600084600601600081548092919060010191905055815260200190815260200160002060008201518160000160006101000a81548173ffffffffffffffffffffffffffffffffffffffff021916908373ffffffffffffffffffffffffffffffffffffffff1602179055506020820151816001015590505034826005016000828254019250508190555081600301548260050154106110575760018260070160016101000a81548160ff021916908315150217905550611075565b60008260070160016101000a81548160ff0219169083151502179055505b505050565b6000806001600084815260200190815260200160002090508060070160009054906101000a900460ff16915050919050565b828054600181600116156101000203166002900490600052602060002090601f016020900481019282601f106110ed57805160ff191683800117855561111b565b8280016001018555821561111b579182015b8281111561111a5782518255916020019190600101906110ff565b5b5090506111289190611212565b5090565b6040518061012001604052806060815260200160608152602001600073ffffffffffffffffffffffffffffffffffffffff168152602001600081526020016000815260200160008152602001600081526020016000151581526020016000151581525090565b828054600181600116156101000203166002900490600052602060002090601f016020900481019282601f106111d357805160ff1916838001178555611201565b82800160010185558215611201579182015b828111156112005782518255916020019190600101906111e5565b5b50905061120e9190611212565b5090565b61123491905b80821115611230576000816000905550600101611218565b5090565b90565b600081359050611246816116de565b92915050565b60008135905061125b816116f5565b92915050565b600082601f83011261127257600080fd5b8135611285611280826115fb565b6115ce565b915080825260208301602083018583830111156112a157600080fd5b6112ac83828461168b565b50505092915050565b6000813590506112c48161170c565b92915050565b600080600080600060a086880312156112e257600080fd5b600086013567ffffffffffffffff8111156112fc57600080fd5b61130888828901611261565b955050602086013567ffffffffffffffff81111561132557600080fd5b61133188828901611261565b945050604061134288828901611237565b9350506060611353888289016112b5565b9250506080611364888289016112b5565b9150509295509295909350565b60006020828403121561138357600080fd5b6000611391848285016112b5565b91505092915050565b600080604083850312156113ad57600080fd5b60006113bb858286016112b5565b92505060206113cc8582860161124c565b9150509250929050565b6000806000606084860312156113eb57600080fd5b60006113f9868287016112b5565b935050602061140a868287016112b5565b925050604084013567ffffffffffffffff81111561142757600080fd5b61143386828701611261565b9150509250925092565b61144681611643565b82525050565b61145581611655565b82525050565b600061146682611627565b6114708185611632565b935061148081856020860161169a565b611489816116cd565b840191505092915050565b61149d81611681565b82525050565b60006020820190506114b8600083018461144c565b92915050565b60006101208201905081810360008301526114d9818c61145b565b905081810360208301526114ed818b61145b565b90506114fc604083018a61143d565b6115096060830189611494565b6115166080830188611494565b61152360a0830187611494565b61153060c0830186611494565b61153d60e083018561144c565b61154b61010083018461144c565b9a9950505050505050505050565b600060a0820190508181036000830152611573818861145b565b90506115826020830187611494565b61158f6040830186611494565b61159c6060830185611494565b6115a9608083018461144c565b9695505050505050565b60006020820190506115c86000830184611494565b92915050565b6000604051905081810181811067ffffffffffffffff821117156115f157600080fd5b8060405250919050565b600067ffffffffffffffff82111561161257600080fd5b601f19601f8301169050602081019050919050565b600081519050919050565b600082825260208201905092915050565b600061164e82611661565b9050919050565b60008115159050919050565b600073ffffffffffffffffffffffffffffffffffffffff82169050919050565b6000819050919050565b82818337600083830152505050565b60005b838110156116b857808201518184015260208101905061169d565b838111156116c7576000848401525b50505050565b6000601f19601f8301169050919050565b6116e781611643565b81146116f257600080fd5b50565b6116fe81611655565b811461170957600080fd5b50565b61171581611681565b811461172057600080fd5b5056fea365627a7a723158204291f8e536d31fd39c839d00ee2626ed8b3acb8cdd825ca2235a0d6651b6a7e76c6578706572696d656e74616cf564736f6c63430005100040",
  "source": "pragma solidity >=0.4.22 <0.9.0;\r\npragma experimental ABIEncoderV2;\r\n\r\ncontract Funding {\r\n\r\n    // 参与者\r\n    struct Funder {\r\n        // 构造函数填充\r\n        address payable addr;                       // 投资人的地址\r\n        uint    amount;                     // 出资数额\r\n    }\r\n\r\n    // 使用请求信息\r\n    struct Use {\r\n        string useDescription;              // 使用说明\r\n        uint   amount;                      // 请求使用的金额\r\n        uint   agreeAmount;                 // 同意的钱，以太坊不太好进行浮点数计算，所以用整形进行表示\r\n        uint   numVote;                     // 投票数量\r\n        bool   isSuccessful;                // 使用请求是否成功\r\n        mapping (uint => uint) agree;       // 从用户序号到是否同意的状态映射\r\n        // 0 没投过票\r\n        // 1 投票同意\r\n        // 2 投票不同意\r\n    }\r\n\r\n    // 项目信息\r\n    struct Campaign {\r\n        // 构造函数填充\r\n        string projectName;                 // 项目名\r\n        string projectDescription;          // 项目描述\r\n        address payable manager;            // 发起者\r\n        uint targetMoney;                   // 目标筹集金额\r\n        uint endTime;                       // 项目结束时间，单位秒\r\n\r\n        uint collectedMoney;                // 收集到的金额\r\n        uint numFunders;                    // 参与成员的数量\r\n        bool isUsed;                        // 是否被使用过\r\n        bool isSuccessful;                  // 是否众筹成功\r\n\r\n        mapping (uint => Funder) funders;   // 参与成员的信息\r\n    }\r\n\r\n    uint public numCampaigns;                      // 众筹项目的数量\r\n    mapping (uint => Campaign) public campaigns;   // 众筹项目的信息\r\n    mapping (uint => Use) public uses;             // 因为结构体内嵌不能成功编译，所以将Use单独拿出来\r\n\r\n    function newCampaign(string memory name, string memory desc, address payable manager, uint target, uint endTime) public\r\n    returns (uint) {\r\n        require(endTime > block.timestamp);\r\n        // campaignID 作为一个变量返回\r\n        uint campaignID = numCampaigns++;\r\n        campaigns[campaignID] = Campaign({projectName: name,\r\n        projectDescription: desc,\r\n        manager: manager,\r\n        targetMoney: target,\r\n        endTime: endTime,\r\n        collectedMoney: 0,\r\n        numFunders: 0,\r\n        isUsed: false,\r\n        isSuccessful: false\r\n        });\r\n        uses[campaignID] = Use(\"Please set Use Description.\", 0, 0, 0, false);\r\n        return campaignID;\r\n    }\r\n\r\n    function contribute(uint campaignID) public payable {\r\n        // ID必须在范围内\r\n        require(campaignID < numCampaigns && campaignID >= 0);\r\n        // 贡献的钱必须大于0，而且不能超过差额\r\n        require(msg.value > 0 && msg.value <= campaigns[campaignID].targetMoney - campaigns[campaignID].collectedMoney);\r\n        // 时间上必须还没结束\r\n        require(campaigns[campaignID].endTime > block.timestamp);\r\n        // 必须还没有收集成功，这一条和第一条基本上是绑定了的\r\n        require(campaigns[campaignID].isSuccessful == false);\r\n\r\n        Campaign storage c = campaigns[campaignID];\r\n        Use storage u = uses[campaignID];\r\n        // 使用权数量增加\r\n        u.agree[c.numFunders] = 0; // 初始为没投票过\r\n        // 投资者数量增加\r\n        c.funders[c.numFunders++] = Funder({addr: msg.sender, amount: msg.value});\r\n        // 已收集的资金增加\r\n        c.collectedMoney += msg.value;\r\n\r\n        // 更改是否成功状态\r\n        if(c.collectedMoney >= c.targetMoney)\r\n            c.isSuccessful = true;\r\n        else\r\n            c.isSuccessful = false;\r\n    }\r\n\r\n    function setUse(uint campaignID, uint amount, string memory desc) public {\r\n        require(campaignID < numCampaigns && campaignID >= 0);\r\n        require(campaigns[campaignID].isSuccessful == true);\r\n        require(campaigns[campaignID].isUsed == false);\r\n        require(campaigns[campaignID].manager == msg.sender); // 必须是发起者使用\r\n        require(campaigns[campaignID].targetMoney >= amount); // 使用的金额小于总共\r\n\r\n        Use storage u = uses[campaignID];\r\n        // 设置use的信息\r\n        u.useDescription = desc;\r\n        u.amount = amount;\r\n    }\r\n\r\n    function agreeUse(uint campaignID, bool agree) public {\r\n        Campaign storage c = campaigns[campaignID];\r\n        Use storage u = uses[campaignID];\r\n        require(campaignID < numCampaigns && campaignID >= 0);\r\n        require(c.isSuccessful == true && c.isUsed == false && u.isSuccessful == false);\r\n\r\n        for(uint i = 0; i <= c.numFunders; i++) {\r\n            // 该用户参与了出资\r\n            if(msg.sender == c.funders[i].addr) {\r\n                require(u.agree[i] == 0);\r\n                if(u.agree[i] == 0) {\r\n                    // 用户同意\r\n                    if(agree == true) {\r\n                        u.agree[i] = 1;\r\n                        u.agreeAmount += c.funders[i].amount;\r\n                    }\r\n                    // 用户不同意\r\n                    else {\r\n                        u.agree[i] = 2;\r\n                    }\r\n                    // 检查此时是不是投票完成\r\n                    if(++u.numVote == c.numFunders) {\r\n                        c.isUsed = true;\r\n                        if(u.agreeAmount >= c.collectedMoney / 2) {\r\n                            u.isSuccessful = true;\r\n                            // 使用成功，给经理人打钱\r\n                            c.manager.transfer(u.amount);\r\n                            c.isUsed = true;\r\n                        }\r\n                        else {\r\n                            u.isSuccessful = false;\r\n                            // 退款，用户上交的钱都退回去\r\n                            // TODO\r\n                        }\r\n                    }\r\n                }\r\n            }\r\n        }\r\n    }\r\n\r\n    // 检查是否筹集到了对应的金额\r\n    function checkGoalReached(uint campaignID) public view returns (bool) {\r\n        Campaign storage c = campaigns[campaignID];\r\n        return c.isSuccessful;\r\n    }\r\n\r\n    // 检查是否被用过了\r\n    function checkCampaignUsed(uint campaignID) public view returns (bool) {\r\n        Campaign storage c = campaigns[campaignID];\r\n        return c.isUsed;\r\n    }\r\n\r\n    // 获取筹集到的金额\r\n    function getAmount(uint campaignID) public view returns(uint) {\r\n        Campaign memory c = campaigns[campaignID];\r\n        return c.collectedMoney;\r\n    }\r\n\r\n\r\n    /* 获取所有参与者\r\n    function getInvestors(uint campaignID) public returns(address[] memory) {\r\n        Campaign storage c = campaigns[campaignID];\r\n        address[] funders;\r\n        for(uint i = 0; i < c.numFunders; i++) {\r\n            funders[i] = c.funders[i].addr;\r\n        }\r\n        return funders;\r\n    }\r\n    */\r\n\r\n    /* 退款\r\n    function refund(uint campaignID) public {\r\n        Campaign c = campaigns[campaignID];\r\n        for (uint i = 0; i < c.numFunders; i++) {\r\n            c.funders[i].transfer(c.funders[i].amount);\r\n        }\r\n    }\r\n    */\r\n}\r\n",
  "sourcePath": "F:/大三秋冬学期/区块链与数字货币/Homework/miniICO/public-offering/ico-truffle/contracts/Funding.sol",
  "compiler": {
    "name": "solc",
    "version": "0.5.16+commit.9c3226ce.Emscripten.clang"
  },
  "schemaVersion": "3.3.2",
  "updatedAt": "2021-01-10T06:36:52.435Z",
  "networkType": "ethereum",
  "devdoc": {
    "methods": {}
  },
  "userdoc": {
    "methods": {}
  }
}