{
  "contractName": "Funding",
  "abi": [
    {
      "constant": true,
      "inputs": [
        {
          "internalType": "uint256",
          "name": "",
          "type": "uint256"
        }
      ],
      "name": "campaigns",
      "outputs": [
        {
          "internalType": "string",
          "name": "projectName",
          "type": "string"
        },
        {
          "internalType": "string",
          "name": "projectDescription",
          "type": "string"
        },
        {
          "internalType": "address payable",
          "name": "manager",
          "type": "address"
        },
        {
          "internalType": "uint256",
          "name": "targetMoney",
          "type": "uint256"
        },
        {
          "internalType": "uint256",
          "name": "durTime",
          "type": "uint256"
        },
        {
          "internalType": "uint256",
          "name": "startTime",
          "type": "uint256"
        },
        {
          "internalType": "uint256",
          "name": "endTime",
          "type": "uint256"
        },
        {
          "internalType": "uint256",
          "name": "collectedMoney",
          "type": "uint256"
        },
        {
          "internalType": "uint256",
          "name": "numFunders",
          "type": "uint256"
        },
        {
          "internalType": "bool",
          "name": "isUsed",
          "type": "bool"
        },
        {
          "internalType": "bool",
          "name": "isSuccessful",
          "type": "bool"
        }
      ],
      "payable": false,
      "stateMutability": "view",
      "type": "function"
    },
    {
      "constant": true,
      "inputs": [],
      "name": "numCampaigns",
      "outputs": [
        {
          "internalType": "uint256",
          "name": "",
          "type": "uint256"
        }
      ],
      "payable": false,
      "stateMutability": "view",
      "type": "function"
    },
    {
      "constant": true,
      "inputs": [
        {
          "internalType": "uint256",
          "name": "",
          "type": "uint256"
        }
      ],
      "name": "uses",
      "outputs": [
        {
          "internalType": "string",
          "name": "useDescription",
          "type": "string"
        },
        {
          "internalType": "uint256",
          "name": "amount",
          "type": "uint256"
        },
        {
          "internalType": "uint256",
          "name": "agreeAmount",
          "type": "uint256"
        },
        {
          "internalType": "uint256",
          "name": "numVote",
          "type": "uint256"
        },
        {
          "internalType": "bool",
          "name": "isSuccessful",
          "type": "bool"
        }
      ],
      "payable": false,
      "stateMutability": "view",
      "type": "function"
    },
    {
      "constant": false,
      "inputs": [
        {
          "internalType": "string",
          "name": "name",
          "type": "string"
        },
        {
          "internalType": "string",
          "name": "desc",
          "type": "string"
        },
        {
          "internalType": "address payable",
          "name": "manager",
          "type": "address"
        },
        {
          "internalType": "uint256",
          "name": "target",
          "type": "uint256"
        },
        {
          "internalType": "uint256",
          "name": "dur",
          "type": "uint256"
        }
      ],
      "name": "newCampaign",
      "outputs": [
        {
          "internalType": "uint256",
          "name": "",
          "type": "uint256"
        }
      ],
      "payable": false,
      "stateMutability": "nonpayable",
      "type": "function"
    },
    {
      "constant": false,
      "inputs": [
        {
          "internalType": "uint256",
          "name": "campaignID",
          "type": "uint256"
        }
      ],
      "name": "contribute",
      "outputs": [],
      "payable": true,
      "stateMutability": "payable",
      "type": "function"
    },
    {
      "constant": false,
      "inputs": [
        {
          "internalType": "uint256",
          "name": "campaignID",
          "type": "uint256"
        },
        {
          "internalType": "uint256",
          "name": "amount",
          "type": "uint256"
        },
        {
          "internalType": "string",
          "name": "desc",
          "type": "string"
        }
      ],
      "name": "setUse",
      "outputs": [],
      "payable": false,
      "stateMutability": "nonpayable",
      "type": "function"
    },
    {
      "constant": false,
      "inputs": [
        {
          "internalType": "uint256",
          "name": "campaignID",
          "type": "uint256"
        },
        {
          "internalType": "bool",
          "name": "agree",
          "type": "bool"
        }
      ],
      "name": "agreeUse",
      "outputs": [],
      "payable": false,
      "stateMutability": "nonpayable",
      "type": "function"
    },
    {
      "constant": true,
      "inputs": [
        {
          "internalType": "uint256",
          "name": "campaignID",
          "type": "uint256"
        }
      ],
      "name": "checkGoalReached",
      "outputs": [
        {
          "internalType": "bool",
          "name": "",
          "type": "bool"
        }
      ],
      "payable": false,
      "stateMutability": "view",
      "type": "function"
    },
    {
      "constant": true,
      "inputs": [
        {
          "internalType": "uint256",
          "name": "campaignID",
          "type": "uint256"
        }
      ],
      "name": "checkCampaignUsed",
      "outputs": [
        {
          "internalType": "bool",
          "name": "",
          "type": "bool"
        }
      ],
      "payable": false,
      "stateMutability": "view",
      "type": "function"
    },
    {
      "constant": true,
      "inputs": [
        {
          "internalType": "uint256",
          "name": "campaignID",
          "type": "uint256"
        }
      ],
      "name": "getAmount",
      "outputs": [
        {
          "internalType": "uint256",
          "name": "",
          "type": "uint256"
        }
      ],
      "payable": false,
      "stateMutability": "view",
      "type": "function"
    }
  ],
  "bytecode": "0x608060405234801561001057600080fd5b506117dd806100206000396000f3fe6080604052600436106100915760003560e01c8063863ee50311610059578063863ee503146101af5780639980ec86146101ec578063b7b1d13014610229578063c1cbbca714610252578063f5234eaf1461026e57610091565b8063141961bc146100965780632c0f7b6f146100dd578063489b05f5146101085780635b2329d4146101315780637cdcbd5d1461016e575b600080fd5b3480156100a257600080fd5b506100bd60048036036100b891908101906113ca565b6102ab565b6040516100d49b9a99989796959493929190611517565b60405180910390f35b3480156100e957600080fd5b506100f261046f565b6040516100ff919061162a565b60405180910390f35b34801561011457600080fd5b5061012f600480360361012a91908101906113f3565b610475565b005b34801561013d57600080fd5b50610158600480360361015391908101906113ca565b610787565b60405161016591906114fc565b60405180910390f35b34801561017a57600080fd5b50610195600480360361019091908101906113ca565b6107b9565b6040516101a69594939291906115d0565b60405180910390f35b3480156101bb57600080fd5b506101d660048036036101d19190810190611323565b610894565b6040516101e3919061162a565b60405180910390f35b3480156101f857600080fd5b50610213600480360361020e91908101906113ca565b610b1d565b604051610220919061162a565b60405180910390f35b34801561023557600080fd5b50610250600480360361024b919081019061142f565b610d61565b005b61026c600480360361026791908101906113ca565b610eb4565b005b34801561027a57600080fd5b50610295600480360361029091908101906113ca565b6110c5565b6040516102a291906114fc565b60405180910390f35b6001602052806000526040600020600091509050806000018054600181600116156101000203166002900480601f0160208091040260200160405190810160405280929190818152602001828054600181600116156101000203166002900480156103575780601f1061032c57610100808354040283529160200191610357565b820191906000526020600020905b81548152906001019060200180831161033a57829003601f168201915b505050505090806001018054600181600116156101000203166002900480601f0160208091040260200160405190810160405280929190818152602001828054600181600116156101000203166002900480156103f55780601f106103ca576101008083540402835291602001916103f5565b820191906000526020600020905b8154815290600101906020018083116103d857829003601f168201915b5050505050908060020160009054906101000a900473ffffffffffffffffffffffffffffffffffffffff16908060030154908060040154908060050154908060060154908060070154908060080154908060090160009054906101000a900460ff16908060090160019054906101000a900460ff1690508b565b60005481565b60006001600084815260200190815260200160002090506000600260008581526020019081526020016000209050600054841080156104b5575060008410155b6104be57600080fd5b600115158260090160019054906101000a900460ff1615151480156104f85750600015158260090160009054906101000a900460ff161515145b80156105195750600015158160040160009054906101000a900460ff161515145b61052257600080fd5b60008090505b826008015481116107805782600a01600082815260200190815260200160002060000160009054906101000a900473ffffffffffffffffffffffffffffffffffffffff1673ffffffffffffffffffffffffffffffffffffffff163373ffffffffffffffffffffffffffffffffffffffff16141561077357600082600501600083815260200190815260200160002054146105c157600080fd5b6000826005016000838152602001908152602001600020541415610772576001151584151514156106365760018260050160008381526020019081526020016000208190555082600a016000828152602001908152602001600020600101548260020160008282540192505081905550610652565b6002826005016000838152602001908152602001600020819055505b8260080154826003016000815460010191905081905514156107715760018360090160006101000a81548160ff021916908315150217905550600283600701548161069957fe5b048260020154106107525760018260040160006101000a81548160ff0219169083151502179055508260020160009054906101000a900473ffffffffffffffffffffffffffffffffffffffff1673ffffffffffffffffffffffffffffffffffffffff166108fc83600101549081150290604051600060405180830381858888f1935050505015801561072f573d6000803e3d6000fd5b5060018360090160006101000a81548160ff021916908315150217905550610770565b60008260040160006101000a81548160ff0219169083151502179055505b5b5b5b8080600101915050610528565b5050505050565b6000806001600084815260200190815260200160002090508060090160019054906101000a900460ff16915050919050565b6002602052806000526040600020600091509050806000018054600181600116156101000203166002900480601f0160208091040260200160405190810160405280929190818152602001828054600181600116156101000203166002900480156108655780601f1061083a57610100808354040283529160200191610865565b820191906000526020600020905b81548152906001019060200180831161084857829003601f168201915b5050505050908060010154908060020154908060030154908060040160009054906101000a900460ff16905085565b60008082116108a257600080fd5b60008060008154809291906001019190505590506040518061016001604052808881526020018781526020018673ffffffffffffffffffffffffffffffffffffffff168152602001858152602001848152602001428152602001620151808502420181526020016000815260200160008152602001600015158152602001600015158152506001600083815260200190815260200160002060008201518160000190805190602001906109569291906110f7565b5060208201518160010190805190602001906109739291906110f7565b5060408201518160020160006101000a81548173ffffffffffffffffffffffffffffffffffffffff021916908373ffffffffffffffffffffffffffffffffffffffff160217905550606082015181600301556080820151816004015560a0820151816005015560c0820151816006015560e0820151816007015561010082015181600801556101208201518160090160006101000a81548160ff0219169083151502179055506101408201518160090160016101000a81548160ff0219169083151502179055509050506040518060a001604052806040518060400160405280601b81526020017f506c656173652073657420557365204465736372697074696f6e2e0000000000815250815260200160008152602001600081526020016000815260200160001515815250600260008381526020019081526020016000206000820151816000019080519060200190610ace9291906110f7565b5060208201518160010155604082015181600201556060820151816003015560808201518160040160006101000a81548160ff0219169083151502179055509050508091505095945050505050565b6000610b27611177565b6001600084815260200190815260200160002060405180610160016040529081600082018054600181600116156101000203166002900480601f016020809104026020016040519081016040528092919081815260200182805460018160011615610100020316600290048015610bdf5780601f10610bb457610100808354040283529160200191610bdf565b820191906000526020600020905b815481529060010190602001808311610bc257829003601f168201915b50505050508152602001600182018054600181600116156101000203166002900480601f016020809104026020016040519081016040528092919081815260200182805460018160011615610100020316600290048015610c815780601f10610c5657610100808354040283529160200191610c81565b820191906000526020600020905b815481529060010190602001808311610c6457829003601f168201915b505050505081526020016002820160009054906101000a900473ffffffffffffffffffffffffffffffffffffffff1673ffffffffffffffffffffffffffffffffffffffff1673ffffffffffffffffffffffffffffffffffffffff1681526020016003820154815260200160048201548152602001600582015481526020016006820154815260200160078201548152602001600882015481526020016009820160009054906101000a900460ff161515151581526020016009820160019054906101000a900460ff16151515158152505090508060e00151915050919050565b60005483108015610d73575060008310155b610d7c57600080fd5b600115156001600085815260200190815260200160002060090160019054906101000a900460ff16151514610db057600080fd5b600015156001600085815260200190815260200160002060090160009054906101000a900460ff16151514610de457600080fd5b3373ffffffffffffffffffffffffffffffffffffffff166001600085815260200190815260200160002060020160009054906101000a900473ffffffffffffffffffffffffffffffffffffffff1673ffffffffffffffffffffffffffffffffffffffff1614610e5257600080fd5b8160016000858152602001908152602001600020600301541015610e7557600080fd5b600060026000858152602001908152602001600020905081816000019080519060200190610ea49291906111eb565b5082816001018190555050505050565b60005481108015610ec6575060008110155b610ecf57600080fd5b600034118015610f0d575060016000828152602001908152602001600020600701546001600083815260200190815260200160002060030154033411155b610f1657600080fd5b42600160008381526020019081526020016000206006015411610f3857600080fd5b600015156001600083815260200190815260200160002060090160019054906101000a900460ff16151514610f6c57600080fd5b600060016000838152602001908152602001600020905060006002600084815260200190815260200160002090506000816005016000846008015481526020019081526020016000208190555060405180604001604052803373ffffffffffffffffffffffffffffffffffffffff1681526020013481525082600a01600084600801600081548092919060010191905055815260200190815260200160002060008201518160000160006101000a81548173ffffffffffffffffffffffffffffffffffffffff021916908373ffffffffffffffffffffffffffffffffffffffff1602179055506020820151816001015590505034826007016000828254019250508190555081600301548260070154106110a25760018260090160016101000a81548160ff0219169083151502179055506110c0565b60008260090160016101000a81548160ff0219169083151502179055505b505050565b6000806001600084815260200190815260200160002090508060090160009054906101000a900460ff16915050919050565b828054600181600116156101000203166002900490600052602060002090601f016020900481019282601f1061113857805160ff1916838001178555611166565b82800160010185558215611166579182015b8281111561116557825182559160200191906001019061114a565b5b509050611173919061126b565b5090565b6040518061016001604052806060815260200160608152602001600073ffffffffffffffffffffffffffffffffffffffff1681526020016000815260200160008152602001600081526020016000815260200160008152602001600081526020016000151581526020016000151581525090565b828054600181600116156101000203166002900490600052602060002090601f016020900481019282601f1061122c57805160ff191683800117855561125a565b8280016001018555821561125a579182015b8281111561125957825182559160200191906001019061123e565b5b509050611267919061126b565b5090565b61128d91905b80821115611289576000816000905550600101611271565b5090565b90565b60008135905061129f81611755565b92915050565b6000813590506112b48161176c565b92915050565b600082601f8301126112cb57600080fd5b81356112de6112d982611672565b611645565b915080825260208301602083018583830111156112fa57600080fd5b611305838284611702565b50505092915050565b60008135905061131d81611783565b92915050565b600080600080600060a0868803121561133b57600080fd5b600086013567ffffffffffffffff81111561135557600080fd5b611361888289016112ba565b955050602086013567ffffffffffffffff81111561137e57600080fd5b61138a888289016112ba565b945050604061139b88828901611290565b93505060606113ac8882890161130e565b92505060806113bd8882890161130e565b9150509295509295909350565b6000602082840312156113dc57600080fd5b60006113ea8482850161130e565b91505092915050565b6000806040838503121561140657600080fd5b60006114148582860161130e565b9250506020611425858286016112a5565b9150509250929050565b60008060006060848603121561144457600080fd5b60006114528682870161130e565b93505060206114638682870161130e565b925050604084013567ffffffffffffffff81111561148057600080fd5b61148c868287016112ba565b9150509250925092565b61149f816116ba565b82525050565b6114ae816116cc565b82525050565b60006114bf8261169e565b6114c981856116a9565b93506114d9818560208601611711565b6114e281611744565b840191505092915050565b6114f6816116f8565b82525050565b600060208201905061151160008301846114a5565b92915050565b6000610160820190508181036000830152611532818e6114b4565b90508181036020830152611546818d6114b4565b9050611555604083018c611496565b611562606083018b6114ed565b61156f608083018a6114ed565b61157c60a08301896114ed565b61158960c08301886114ed565b61159660e08301876114ed565b6115a46101008301866114ed565b6115b26101208301856114a5565b6115c06101408301846114a5565b9c9b505050505050505050505050565b600060a08201905081810360008301526115ea81886114b4565b90506115f960208301876114ed565b61160660408301866114ed565b61161360608301856114ed565b61162060808301846114a5565b9695505050505050565b600060208201905061163f60008301846114ed565b92915050565b6000604051905081810181811067ffffffffffffffff8211171561166857600080fd5b8060405250919050565b600067ffffffffffffffff82111561168957600080fd5b601f19601f8301169050602081019050919050565b600081519050919050565b600082825260208201905092915050565b60006116c5826116d8565b9050919050565b60008115159050919050565b600073ffffffffffffffffffffffffffffffffffffffff82169050919050565b6000819050919050565b82818337600083830152505050565b60005b8381101561172f578082015181840152602081019050611714565b8381111561173e576000848401525b50505050565b6000601f19601f8301169050919050565b61175e816116ba565b811461176957600080fd5b50565b611775816116cc565b811461178057600080fd5b50565b61178c816116f8565b811461179757600080fd5b5056fea365627a7a72315820a66662ef32695dc400338fd27b56ce88d7f53645e644918705834e18632ae4266c6578706572696d656e74616cf564736f6c63430005100040",
  "source": "pragma solidity >=0.4.22 <0.9.0;\r\npragma experimental ABIEncoderV2;\r\n\r\ncontract Funding {\r\n\r\n    // 参与者\r\n    struct Funder {\r\n        // 构造函数填充\r\n        address payable addr;                       // 投资人的地址\r\n        uint    amount;                     // 出资数额\r\n    }\r\n\r\n    // 使用请求信息\r\n    struct Use {\r\n        string useDescription;              // 使用说明\r\n        uint   amount;                      // 请求使用的金额\r\n        uint   agreeAmount;                 // 同意的钱，以太坊不太好进行浮点数计算，所以用整形进行表示\r\n        uint   numVote;                     // 投票数量\r\n        bool   isSuccessful;                // 使用请求是否成功\r\n        mapping (uint => uint) agree;       // 从用户序号到是否同意的状态映射\r\n        // 0 没投过票\r\n        // 1 投票同意\r\n        // 2 投票不同意\r\n    }\r\n\r\n    // 项目信息\r\n    struct Campaign {\r\n        // 构造函数填充\r\n        string projectName;                 // 项目名\r\n        string projectDescription;          // 项目描述\r\n        address payable manager;            // 发起者\r\n        uint targetMoney;                   // 目标筹集金额\r\n        uint durTime;                       // 项目结束时间，单位天\r\n\r\n        uint startTime;                     // 项目开始时间\r\n        uint endTime;                       // 项目结束时间\r\n        uint collectedMoney;                // 收集到的金额\r\n        uint numFunders;                    // 参与成员的数量\r\n        bool isUsed;                        // 是否被使用过\r\n        bool isSuccessful;                  // 是否众筹成功\r\n\r\n        mapping (uint => Funder) funders;   // 参与成员的信息\r\n    }\r\n\r\n    uint public numCampaigns;                      // 众筹项目的数量\r\n    mapping (uint => Campaign) public campaigns;   // 众筹项目的信息\r\n    mapping (uint => Use) public uses;             // 因为结构体内嵌不能成功编译，所以将Use单独拿出来\r\n\r\n    function newCampaign(string memory name, string memory desc, address payable manager, uint target, uint dur) public\r\n    returns (uint) {\r\n        require(dur > 0);\r\n        // campaignID 作为一个变量返回\r\n        uint campaignID = numCampaigns++;\r\n        campaigns[campaignID] = Campaign({projectName: name,\r\n        projectDescription: desc,\r\n        manager: manager,\r\n        targetMoney: target,\r\n        durTime: dur,\r\n        startTime: now,\r\n        endTime: now + dur * 1 days,\r\n        collectedMoney: 0,\r\n        numFunders: 0,\r\n        isUsed: false,\r\n        isSuccessful: false\r\n        });\r\n        uses[campaignID] = Use(\"Please set Use Description.\", 0, 0, 0, false);\r\n        return campaignID;\r\n    }\r\n\r\n    function contribute(uint campaignID) public payable {\r\n        // ID必须在范围内\r\n        require(campaignID < numCampaigns && campaignID >= 0);\r\n        // 贡献的钱必须大于0，而且不能超过差额\r\n        require(msg.value > 0 && msg.value <= campaigns[campaignID].targetMoney - campaigns[campaignID].collectedMoney);\r\n        // 时间上必须还没结束\r\n        require(campaigns[campaignID].endTime > now);\r\n        // 必须还没有收集成功，这一条和第一条基本上是绑定了的\r\n        require(campaigns[campaignID].isSuccessful == false);\r\n\r\n        Campaign storage c = campaigns[campaignID];\r\n        Use storage u = uses[campaignID];\r\n        // 使用权数量增加\r\n        u.agree[c.numFunders] = 0; // 初始为没投票过\r\n        // 投资者数量增加\r\n        c.funders[c.numFunders++] = Funder({addr: msg.sender, amount: msg.value});\r\n        // 已收集的资金增加\r\n        c.collectedMoney += msg.value;\r\n\r\n        // 更改是否成功状态\r\n        if(c.collectedMoney >= c.targetMoney)\r\n            c.isSuccessful = true;\r\n        else\r\n            c.isSuccessful = false;\r\n    }\r\n\r\n    function setUse(uint campaignID, uint amount, string memory desc) public {\r\n        require(campaignID < numCampaigns && campaignID >= 0);\r\n        require(campaigns[campaignID].isSuccessful == true);\r\n        require(campaigns[campaignID].isUsed == false);\r\n        require(campaigns[campaignID].manager == msg.sender); // 必须是发起者使用\r\n        require(campaigns[campaignID].targetMoney >= amount); // 使用的金额小于总共\r\n\r\n        Use storage u = uses[campaignID];\r\n        // 设置use的信息\r\n        u.useDescription = desc;\r\n        u.amount = amount;\r\n    }\r\n\r\n    function agreeUse(uint campaignID, bool agree) public {\r\n        Campaign storage c = campaigns[campaignID];\r\n        Use storage u = uses[campaignID];\r\n        require(campaignID < numCampaigns && campaignID >= 0);\r\n        require(c.isSuccessful == true && c.isUsed == false && u.isSuccessful == false);\r\n\r\n        for(uint i = 0; i <= c.numFunders; i++) {\r\n            // 该用户参与了出资\r\n            if(msg.sender == c.funders[i].addr) {\r\n                require(u.agree[i] == 0);\r\n                if(u.agree[i] == 0) {\r\n                    // 用户同意\r\n                    if(agree == true) {\r\n                        u.agree[i] = 1;\r\n                        u.agreeAmount += c.funders[i].amount;\r\n                    }\r\n                    // 用户不同意\r\n                    else {\r\n                        u.agree[i] = 2;\r\n                    }\r\n                    // 检查此时是不是投票完成\r\n                    if(++u.numVote == c.numFunders) {\r\n                        c.isUsed = true;\r\n                        if(u.agreeAmount >= c.collectedMoney / 2) {\r\n                            u.isSuccessful = true;\r\n                            // 使用成功，给经理人打钱\r\n                            c.manager.transfer(u.amount);\r\n                            c.isUsed = true;\r\n                        }\r\n                        else {\r\n                            u.isSuccessful = false;\r\n                            // 退款，用户上交的钱都退回去\r\n                            // TODO\r\n                        }\r\n                    }\r\n                }\r\n            }\r\n        }\r\n    }\r\n\r\n    // 检查是否筹集到了对应的金额\r\n    function checkGoalReached(uint campaignID) public view returns (bool) {\r\n        Campaign storage c = campaigns[campaignID];\r\n        return c.isSuccessful;\r\n    }\r\n\r\n    // 检查是否被用过了\r\n    function checkCampaignUsed(uint campaignID) public view returns (bool) {\r\n        Campaign storage c = campaigns[campaignID];\r\n        return c.isUsed;\r\n    }\r\n\r\n    // 获取筹集到的金额\r\n    function getAmount(uint campaignID) public view returns(uint) {\r\n        Campaign memory c = campaigns[campaignID];\r\n        return c.collectedMoney;\r\n    }\r\n\r\n\r\n    /* 获取所有参与者\r\n    function getInvestors(uint campaignID) public returns(address[] memory) {\r\n        Campaign storage c = campaigns[campaignID];\r\n        address[] funders;\r\n        for(uint i = 0; i < c.numFunders; i++) {\r\n            funders[i] = c.funders[i].addr;\r\n        }\r\n        return funders;\r\n    }\r\n    */\r\n\r\n    /* 退款\r\n    function refund(uint campaignID) public {\r\n        Campaign c = campaigns[campaignID];\r\n        for (uint i = 0; i < c.numFunders; i++) {\r\n            c.funders[i].transfer(c.funders[i].amount);\r\n        }\r\n    }\r\n    */\r\n}\r\n",
  "sourcePath": "F:/大三秋冬学期/区块链与数字货币/Homework/miniICO/miniICO/contracts/contracts/Funding.sol",
  "compiler": {
    "name": "solc",
    "version": "0.5.16+commit.9c3226ce.Emscripten.clang"
  },
  "schemaVersion": "3.3.2",
  "updatedAt": "2021-01-10T17:33:53.339Z",
  "networkType": "ethereum",
  "devdoc": {
    "methods": {}
  },
  "userdoc": {
    "methods": {}
  }
}