{
  "contractName": "Funding",
  "abi": [
    {
      "constant": true,
      "inputs": [
        {
          "internalType": "uint256",
          "name": "",
          "type": "uint256"
        }
      ],
      "name": "campaigns",
      "outputs": [
        {
          "internalType": "string",
          "name": "projectName",
          "type": "string"
        },
        {
          "internalType": "string",
          "name": "projectDescription",
          "type": "string"
        },
        {
          "internalType": "address payable",
          "name": "manager",
          "type": "address"
        },
        {
          "internalType": "uint256",
          "name": "targetMoney",
          "type": "uint256"
        },
        {
          "internalType": "uint256",
          "name": "durTime",
          "type": "uint256"
        },
        {
          "internalType": "uint256",
          "name": "startTime",
          "type": "uint256"
        },
        {
          "internalType": "uint256",
          "name": "endTime",
          "type": "uint256"
        },
        {
          "internalType": "uint256",
          "name": "collectedMoney",
          "type": "uint256"
        },
        {
          "internalType": "uint256",
          "name": "numFunders",
          "type": "uint256"
        },
        {
          "internalType": "uint256",
          "name": "state",
          "type": "uint256"
        }
      ],
      "payable": false,
      "stateMutability": "view",
      "type": "function"
    },
    {
      "constant": true,
      "inputs": [],
      "name": "numCampaigns",
      "outputs": [
        {
          "internalType": "uint256",
          "name": "",
          "type": "uint256"
        }
      ],
      "payable": false,
      "stateMutability": "view",
      "type": "function"
    },
    {
      "constant": true,
      "inputs": [
        {
          "internalType": "uint256",
          "name": "",
          "type": "uint256"
        }
      ],
      "name": "uses",
      "outputs": [
        {
          "internalType": "string",
          "name": "useDescription",
          "type": "string"
        },
        {
          "internalType": "uint256",
          "name": "amount",
          "type": "uint256"
        },
        {
          "internalType": "uint256",
          "name": "agreeAmount",
          "type": "uint256"
        },
        {
          "internalType": "uint256",
          "name": "disagreeAmount",
          "type": "uint256"
        },
        {
          "internalType": "uint256",
          "name": "numVote",
          "type": "uint256"
        }
      ],
      "payable": false,
      "stateMutability": "view",
      "type": "function"
    },
    {
      "constant": false,
      "inputs": [
        {
          "internalType": "string",
          "name": "name",
          "type": "string"
        },
        {
          "internalType": "string",
          "name": "desc",
          "type": "string"
        },
        {
          "internalType": "address payable",
          "name": "manager",
          "type": "address"
        },
        {
          "internalType": "uint256",
          "name": "target",
          "type": "uint256"
        },
        {
          "internalType": "uint256",
          "name": "dur",
          "type": "uint256"
        }
      ],
      "name": "newCampaign",
      "outputs": [
        {
          "internalType": "uint256",
          "name": "",
          "type": "uint256"
        }
      ],
      "payable": false,
      "stateMutability": "nonpayable",
      "type": "function"
    },
    {
      "constant": false,
      "inputs": [
        {
          "internalType": "uint256",
          "name": "campaignID",
          "type": "uint256"
        }
      ],
      "name": "contribute",
      "outputs": [],
      "payable": true,
      "stateMutability": "payable",
      "type": "function"
    },
    {
      "constant": false,
      "inputs": [
        {
          "internalType": "uint256",
          "name": "campaignID",
          "type": "uint256"
        },
        {
          "internalType": "uint256",
          "name": "amount",
          "type": "uint256"
        },
        {
          "internalType": "string",
          "name": "desc",
          "type": "string"
        }
      ],
      "name": "setUse",
      "outputs": [],
      "payable": false,
      "stateMutability": "nonpayable",
      "type": "function"
    },
    {
      "constant": false,
      "inputs": [
        {
          "internalType": "uint256",
          "name": "campaignID",
          "type": "uint256"
        },
        {
          "internalType": "bool",
          "name": "agree",
          "type": "bool"
        }
      ],
      "name": "agreeUse",
      "outputs": [],
      "payable": false,
      "stateMutability": "nonpayable",
      "type": "function"
    },
    {
      "constant": true,
      "inputs": [
        {
          "internalType": "uint256",
          "name": "campaignID",
          "type": "uint256"
        }
      ],
      "name": "checkIsFunder",
      "outputs": [
        {
          "internalType": "bool",
          "name": "",
          "type": "bool"
        }
      ],
      "payable": false,
      "stateMutability": "view",
      "type": "function"
    },
    {
      "constant": true,
      "inputs": [
        {
          "internalType": "uint256",
          "name": "campaignID",
          "type": "uint256"
        }
      ],
      "name": "checkIsVoted",
      "outputs": [
        {
          "internalType": "bool",
          "name": "",
          "type": "bool"
        }
      ],
      "payable": false,
      "stateMutability": "view",
      "type": "function"
    }
  ],
  "bytecode": "0x608060405234801561001057600080fd5b506116d4806100206000396000f3fe6080604052600436106100865760003560e01c80637cdcbd5d116100595780637cdcbd5d14610162578063863ee503146101a3578063b7b1d130146101e0578063bd0b8dae14610209578063c1cbbca71461024657610086565b8063141961bc1461008b5780632c0f7b6f146100d1578063489b05f5146100fc5780634c4de70614610125575b600080fd5b34801561009757600080fd5b506100b260048036036100ad91908101906112d0565b610262565b6040516100c89a9998979695949392919061141d565b60405180910390f35b3480156100dd57600080fd5b506100e6610406565b6040516100f39190611521565b60405180910390f35b34801561010857600080fd5b50610123600480360361011e91908101906112f9565b61040c565b005b34801561013157600080fd5b5061014c600480360361014791908101906112d0565b6106a1565b6040516101599190611402565b60405180910390f35b34801561016e57600080fd5b50610189600480360361018491908101906112d0565b610798565b60405161019a9594939291906114c7565b60405180910390f35b3480156101af57600080fd5b506101ca60048036036101c59190810190611229565b610866565b6040516101d79190611521565b60405180910390f35b3480156101ec57600080fd5b5061020760048036036102029190810190611335565b610b1e565b005b34801561021557600080fd5b50610230600480360361022b91908101906112d0565b610c58565b60405161023d9190611402565b60405180910390f35b610260600480360361025b91908101906112d0565b610d15565b005b6001602052806000526040600020600091509050806000018054600181600116156101000203166002900480601f01602080910402602001604051908101604052809291908181526020018280546001816001161561010002031660029004801561030e5780601f106102e35761010080835404028352916020019161030e565b820191906000526020600020905b8154815290600101906020018083116102f157829003601f168201915b505050505090806001018054600181600116156101000203166002900480601f0160208091040260200160405190810160405280929190818152602001828054600181600116156101000203166002900480156103ac5780601f10610381576101008083540402835291602001916103ac565b820191906000526020600020905b81548152906001019060200180831161038f57829003601f168201915b5050505050908060020160009054906101000a900473ffffffffffffffffffffffffffffffffffffffff1690806003015490806004015490806005015490806006015490806007015490806008015490806009015490508a565b60005481565b600060016000848152602001908152602001600020905060006002600085815260200190815260200160002090506000548410801561044c575060008410155b61045557600080fd5b600482600901541461046657600080fd5b60008090505b826008015481101561069a5782600a01818154811061048757fe5b9060005260206000200160009054906101000a900473ffffffffffffffffffffffffffffffffffffffff1673ffffffffffffffffffffffffffffffffffffffff163373ffffffffffffffffffffffffffffffffffffffff16141561068d5760008260050182815481106104f657fe5b90600052602060002001541461050b57600080fd5b600082600501828154811061051c57fe5b9060005260206000200154141561068c5760011515841515141561058957600182600501828154811061054b57fe5b906000526020600020018190555082600b01818154811061056857fe5b906000526020600020015482600201600082825401925050819055506105d4565b600282600501828154811061059a57fe5b906000526020600020018190555082600b0181815481106105b757fe5b906000526020600020015482600301600082825401925050819055505b60028360070154816105e257fe5b0482600201541061066757600283600901819055508260020160009054906101000a900473ffffffffffffffffffffffffffffffffffffffff1673ffffffffffffffffffffffffffffffffffffffff166108fc83600101549081150290604051600060405180830381858888f19350505050158015610665573d6000803e3d6000fd5b505b600283600701548161067557fe5b0482600301541061068b57600183600901819055505b5b5b808060010191505061046c565b5050505050565b6000806002600084815260200190815260200160002090506000600160008581526020019081526020016000209050600080905060008090505b826008015481101561078c573373ffffffffffffffffffffffffffffffffffffffff1683600a01828154811061070d57fe5b9060005260206000200160009054906101000a900473ffffffffffffffffffffffffffffffffffffffff1673ffffffffffffffffffffffffffffffffffffffff16141561077f57600084600501828154811061076557fe5b90600052602060002001541461077e576001915061078c565b5b80806001019150506106db565b50809350505050919050565b6002602052806000526040600020600091509050806000018054600181600116156101000203166002900480601f0160208091040260200160405190810160405280929190818152602001828054600181600116156101000203166002900480156108445780601f1061081957610100808354040283529160200191610844565b820191906000526020600020905b81548152906001019060200180831161082757829003601f168201915b5050505050908060010154908060020154908060030154908060040154905085565b600080821161087457600080fd5b6000806000815480929190600101919050559050606080610893610ee0565b6040518061018001604052808b81526020018a81526020018973ffffffffffffffffffffffffffffffffffffffff168152602001670de0b6b3a7640000890281526020018781526020014281526020016201518088024201815260200160008152602001600081526020016000815260200184815260200183815250905080600160008681526020019081526020016000206000820151816000019080519060200190610941929190610f57565b50602082015181600101908051906020019061095e929190610f57565b5060408201518160020160006101000a81548173ffffffffffffffffffffffffffffffffffffffff021916908373ffffffffffffffffffffffffffffffffffffffff160217905550606082015181600301556080820151816004015560a0820151816005015560c0820151816006015560e082015181600701556101008201518160080155610120820151816009015561014082015181600a019080519060200190610a0b929190610fd7565b5061016082015181600b019080519060200190610a29929190611061565b5090505060606040518060c001604052806040518060400160405280601b81526020017f506c656173652073657420557365204465736372697074696f6e2e000000000081525081526020016000815260200160008152602001600081526020016000815260200182815250600260008781526020019081526020016000206000820151816000019080519060200190610ac4929190610f57565b506020820151816001015560408201518160020155606082015181600301556080820151816004015560a0820151816005019080519060200190610b09929190611061565b50905050849550505050505095945050505050565b60005483108015610b30575060008310155b610b3957600080fd5b6003600160008581526020019081526020016000206009015414610b5c57600080fd5b3373ffffffffffffffffffffffffffffffffffffffff166001600085815260200190815260200160002060020160009054906101000a900473ffffffffffffffffffffffffffffffffffffffff1673ffffffffffffffffffffffffffffffffffffffff1614610bca57600080fd5b8160016000858152602001908152602001600020600301541015610bed57600080fd5b6000600160008581526020019081526020016000209050600060026000868152602001908152602001600020905082816000019080519060200190610c339291906110ae565b50670de0b6b3a764000084028160010181905550600482600901819055505050505050565b600080600160008481526020019081526020016000209050600080905060008090505b8260080154811015610d0a573373ffffffffffffffffffffffffffffffffffffffff1683600a018281548110610cad57fe5b9060005260206000200160009054906101000a900473ffffffffffffffffffffffffffffffffffffffff1673ffffffffffffffffffffffffffffffffffffffff161415610cfd5760019150610d0a565b8080600101915050610c7b565b508092505050919050565b60005481108015610d27575060008110155b610d3057600080fd5b600034118015610d6e575060016000828152602001908152602001600020600701546001600083815260200190815260200160002060030154033411155b610d7757600080fd5b42600160008381526020019081526020016000206006015411610d9957600080fd5b6000600160008381526020019081526020016000206009015414610dbc57600080fd5b60006001600083815260200190815260200160002090506000600260008481526020019081526020016000209050806005016000908060018154018082558091505090600182039060005260206000200160009091929091909150555081600a013390806001815401808255809150509060018203906000526020600020016000909192909190916101000a81548173ffffffffffffffffffffffffffffffffffffffff021916908373ffffffffffffffffffffffffffffffffffffffff1602179055505081600b013490806001815401808255809150509060018203906000526020600020016000909192909190915055503482600701600082825401925050819055508160030154826007015410610edb57600382600901819055505b505050565b6040518061018001604052806060815260200160608152602001600073ffffffffffffffffffffffffffffffffffffffff1681526020016000815260200160008152602001600081526020016000815260200160008152602001600081526020016000815260200160608152602001606081525090565b828054600181600116156101000203166002900490600052602060002090601f016020900481019282601f10610f9857805160ff1916838001178555610fc6565b82800160010185558215610fc6579182015b82811115610fc5578251825591602001919060010190610faa565b5b509050610fd3919061112e565b5090565b828054828255906000526020600020908101928215611050579160200282015b8281111561104f5782518260006101000a81548173ffffffffffffffffffffffffffffffffffffffff021916908373ffffffffffffffffffffffffffffffffffffffff16021790555091602001919060010190610ff7565b5b50905061105d9190611153565b5090565b82805482825590600052602060002090810192821561109d579160200282015b8281111561109c578251825591602001919060010190611081565b5b5090506110aa919061112e565b5090565b828054600181600116156101000203166002900490600052602060002090601f016020900481019282601f106110ef57805160ff191683800117855561111d565b8280016001018555821561111d579182015b8281111561111c578251825591602001919060010190611101565b5b50905061112a919061112e565b5090565b61115091905b8082111561114c576000816000905550600101611134565b5090565b90565b61119391905b8082111561118f57600081816101000a81549073ffffffffffffffffffffffffffffffffffffffff021916905550600101611159565b5090565b90565b6000813590506111a58161164c565b92915050565b6000813590506111ba81611663565b92915050565b600082601f8301126111d157600080fd5b81356111e46111df82611569565b61153c565b9150808252602083016020830185838301111561120057600080fd5b61120b8382846115f9565b50505092915050565b6000813590506112238161167a565b92915050565b600080600080600060a0868803121561124157600080fd5b600086013567ffffffffffffffff81111561125b57600080fd5b611267888289016111c0565b955050602086013567ffffffffffffffff81111561128457600080fd5b611290888289016111c0565b94505060406112a188828901611196565b93505060606112b288828901611214565b92505060806112c388828901611214565b9150509295509295909350565b6000602082840312156112e257600080fd5b60006112f084828501611214565b91505092915050565b6000806040838503121561130c57600080fd5b600061131a85828601611214565b925050602061132b858286016111ab565b9150509250929050565b60008060006060848603121561134a57600080fd5b600061135886828701611214565b935050602061136986828701611214565b925050604084013567ffffffffffffffff81111561138657600080fd5b611392868287016111c0565b9150509250925092565b6113a5816115b1565b82525050565b6113b4816115c3565b82525050565b60006113c582611595565b6113cf81856115a0565b93506113df818560208601611608565b6113e88161163b565b840191505092915050565b6113fc816115ef565b82525050565b600060208201905061141760008301846113ab565b92915050565b6000610140820190508181036000830152611438818d6113ba565b9050818103602083015261144c818c6113ba565b905061145b604083018b61139c565b611468606083018a6113f3565b61147560808301896113f3565b61148260a08301886113f3565b61148f60c08301876113f3565b61149c60e08301866113f3565b6114aa6101008301856113f3565b6114b86101208301846113f3565b9b9a5050505050505050505050565b600060a08201905081810360008301526114e181886113ba565b90506114f060208301876113f3565b6114fd60408301866113f3565b61150a60608301856113f3565b61151760808301846113f3565b9695505050505050565b600060208201905061153660008301846113f3565b92915050565b6000604051905081810181811067ffffffffffffffff8211171561155f57600080fd5b8060405250919050565b600067ffffffffffffffff82111561158057600080fd5b601f19601f8301169050602081019050919050565b600081519050919050565b600082825260208201905092915050565b60006115bc826115cf565b9050919050565b60008115159050919050565b600073ffffffffffffffffffffffffffffffffffffffff82169050919050565b6000819050919050565b82818337600083830152505050565b60005b8381101561162657808201518184015260208101905061160b565b83811115611635576000848401525b50505050565b6000601f19601f8301169050919050565b611655816115b1565b811461166057600080fd5b50565b61166c816115c3565b811461167757600080fd5b50565b611683816115ef565b811461168e57600080fd5b5056fea365627a7a7231582048488810ce6614c4c698656fbfe713269ad7e6ee97871a38665f802abcff97ed6c6578706572696d656e74616cf564736f6c63430005100040",
  "source": "pragma solidity >=0.4.22 <0.9.0;\r\npragma experimental ABIEncoderV2;\r\n\r\ncontract Funding {\r\n\r\n    // 使用请求信息\r\n    struct Use {\r\n        string useDescription;              // 使用说明\r\n        uint   amount;                      // 请求使用的金额\r\n        uint   agreeAmount;                 // 同意的钱，以太坊不太好进行浮点数计算，所以用整形进行表示\r\n        uint   disagreeAmount;              // 不同意的钱，以太坊不太好进行浮点数计算，所以用整形进行表示\r\n        uint   numVote;                     // 投票数量\r\n        uint[] agree;                       // 从用户序号到是否同意的状态映射\r\n        // 0 没投过票\r\n        // 1 投票同意\r\n        // 2 投票不同意\r\n    }\r\n\r\n    // 项目信息\r\n    struct Campaign {\r\n        // 构造函数填充\r\n        string projectName;                 // 项目名\r\n        string projectDescription;          // 项目描述\r\n        address payable manager;            // 发起者\r\n        uint targetMoney;                   // 目标筹集金额\r\n        uint durTime;                       // 项目结束时间，单位天\r\n\r\n        uint startTime;                     // 项目开始时间\r\n        uint endTime;                       // 项目结束时间\r\n        uint collectedMoney;                // 收集到的金额\r\n        uint numFunders;                    // 参与成员的数量\r\n\r\n        uint state;                         /**\r\n                                             * 给合约建立一个状态机：\r\n                                             * 0：合约刚刚建立，正在进行募集\r\n                                             * 1：合约失败（因为超时且没有募集完或者发起请求但是被验证失败）\r\n                                             * 2：合约成功（募集成功而且使用成功）\r\n                                             * 3：合约在规定时间内募集成功，还没发起使用\r\n                                             * 4：发起了使用请求，正在接受请求\r\n                                             */\r\n\r\n        address[] funders;                  // 参与成员的地址\r\n        uint[]    amount;                   // 参与者贡献的金额\r\n    }\r\n\r\n    uint public numCampaigns;                      // 众筹项目的数量\r\n    mapping (uint => Campaign) public campaigns;   // 众筹项目的信息\r\n    mapping (uint => Use) public uses;             // 因为结构体内嵌不能成功编译，所以将Use单独拿出来\r\n\r\n    function newCampaign(string memory name, string memory desc, address payable manager, uint target, uint dur) public\r\n    returns (uint) {\r\n        require(dur > 0);\r\n        // campaignID 作为一个变量返回\r\n        uint campaignID = numCampaigns++;\r\n\r\n        address[] memory funders;\r\n        uint[] memory amount;\r\n        Campaign memory c = Campaign({\r\n        projectName: name,\r\n        projectDescription: desc,\r\n        manager: manager,\r\n        targetMoney: target * 1 ether,\r\n        durTime: dur,\r\n        startTime: now,\r\n        endTime: now + dur * 1 days,\r\n        collectedMoney: 0 * 1 ether,\r\n        numFunders: 0,\r\n        state: 0,\r\n        funders: funders,\r\n        amount: amount\r\n        });\r\n        campaigns[campaignID] = c;\r\n\r\n        uint[] memory agree;\r\n        uses[campaignID] = Use({\r\n        useDescription: \"Please set Use Description.\",\r\n        amount: 0,\r\n        agreeAmount: 0,\r\n        disagreeAmount: 0,\r\n        numVote: 0,\r\n        agree: agree\r\n        });\r\n        return campaignID;\r\n    }\r\n\r\n    function contribute(uint campaignID) public payable {\r\n        // ID必须在范围内\r\n        require(campaignID < numCampaigns && campaignID >= 0);\r\n        // 贡献的钱必须大于0，而且不能超过差额\r\n        require(msg.value > 0 && msg.value <= campaigns[campaignID].targetMoney - campaigns[campaignID].collectedMoney);\r\n        // 时间上必须还没结束\r\n        require(campaigns[campaignID].endTime > now);\r\n        // 必须还没有收集成功\r\n        require(campaigns[campaignID].state == 0);\r\n\r\n        Campaign storage c = campaigns[campaignID];\r\n        Use storage u = uses[campaignID];\r\n        // 使用权数量增加\r\n        u.agree.push(0);    // 初始为没投票过\r\n        // 投资者数量增加\r\n        c.funders.push(msg.sender);\r\n        c.amount.push(msg.value);\r\n        // 已收集的资金增加\r\n        c.collectedMoney += msg.value;\r\n\r\n        // 是否满足了金额，更改状态\r\n        if(c.collectedMoney >= c.targetMoney)\r\n            c.state = 3;\r\n\r\n    }\r\n\r\n    function setUse(uint campaignID, uint amount, string memory desc) public {\r\n        require(campaignID < numCampaigns && campaignID >= 0);\r\n        require(campaigns[campaignID].state == 3);\r\n        require(campaigns[campaignID].manager == msg.sender); // 必须是发起者使用\r\n        require(campaigns[campaignID].targetMoney >= amount); // 使用的金额小于总共\r\n\r\n        Campaign storage c = campaigns[campaignID];\r\n        Use storage u = uses[campaignID];\r\n        // 设置use的信息\r\n        u.useDescription = desc;\r\n        u.amount = amount * 1 ether;\r\n        // 状态改变\r\n        c.state = 4;\r\n    }\r\n\r\n    function agreeUse(uint campaignID, bool agree) public {\r\n        Campaign storage c = campaigns[campaignID];\r\n        Use storage u = uses[campaignID];\r\n\r\n        require(campaignID < numCampaigns && campaignID >= 0);\r\n        require(c.state == 4);\r\n\r\n        for(uint i = 0; i < c.numFunders; i++) {\r\n            // 该用户参与了出资\r\n            if(msg.sender == c.funders[i]) {\r\n                require(u.agree[i] == 0);\r\n\r\n                if(u.agree[i] == 0) {\r\n                    // 用户同意\r\n                    if(agree == true) {\r\n                        u.agree[i] = 1;\r\n                        u.agreeAmount += c.amount[i];\r\n                    }\r\n                    // 用户不同意\r\n                    else {\r\n                        u.agree[i] = 2;\r\n                        u.disagreeAmount += c.amount[i];\r\n                    }\r\n\r\n                    // 检查此时是否过半\r\n                    if(u.agreeAmount >= c.collectedMoney / 2) {\r\n                        c.state = 2;\r\n                        // 使用成功，给经理人打钱\r\n                        c.manager.transfer(u.amount);\r\n                    }\r\n                    if(u.disagreeAmount >= c.collectedMoney / 2) {\r\n                        c.state = 1;\r\n                    }\r\n                }\r\n            }\r\n        }\r\n    }\r\n\r\n    // 检查一个用户是否在一个项目的支持者名单中\r\n    function checkIsFunder(uint campaignID) public view returns (bool) {\r\n        Campaign storage c = campaigns[campaignID];\r\n        bool ret = false;\r\n        for(uint i = 0; i < c.numFunders; i++) {\r\n            if(c.funders[i] == msg.sender) {\r\n                ret = true;\r\n                break;\r\n            }\r\n        }\r\n        return ret;\r\n    }\r\n\r\n    // 检查一个用户是否对一个项目投票\r\n    function checkIsVoted(uint campaignID) public view returns (bool) {\r\n        Use storage u = uses[campaignID];\r\n        Campaign storage c = campaigns[campaignID];\r\n        bool ret = false;\r\n        for(uint i = 0; i < c.numFunders; i++) {\r\n            if(c.funders[i] == msg.sender) {\r\n                if(u.agree[i] != 0) {\r\n                    ret = true;\r\n                    break;\r\n                }\r\n            }\r\n        }\r\n        return ret;\r\n    }\r\n\r\n    /*\r\n    function getInvestors(uint campaignID) public returns(address[] memory) {\r\n        Campaign storage c = campaigns[campaignID];\r\n        address[] storage funders;\r\n        for(uint i = 0; i < c.numFunders; i++) {\r\n            funders[i] = c.funders[i].addr;\r\n        }\r\n        return funders;\r\n    }\r\n    */\r\n\r\n    /* 退款\r\n    function refund(uint campaignID) public {\r\n        Campaign c = campaigns[campaignID];\r\n        for (uint i = 0; i < c.numFunders; i++) {\r\n            c.funders[i].transfer(c.funders[i].amount);\r\n        }\r\n    }\r\n    */\r\n}\r\n",
  "sourcePath": "F:/大三秋冬学期/区块链与数字货币/Homework/miniICO/miniICO/contracts/contracts/Funding.sol",
  "compiler": {
    "name": "solc",
    "version": "0.5.16+commit.9c3226ce.Emscripten.clang"
  },
  "schemaVersion": "3.3.2",
  "updatedAt": "2021-01-12T07:38:53.061Z",
  "networkType": "ethereum",
  "devdoc": {
    "methods": {}
  },
  "userdoc": {
    "methods": {}
  }
}